:020000040000FA
:060000000A128A110C280F
:10000800FE00030EF8000A08F9000A128A11B42843
:100018000A128A110F2883133030FD000130FE00C8
:100028005830FF00203084000A128A1124210A1255
:100038008A11B001B101B201B301B401B501B60131
:10004800F001F101F201F301F401F50183010A1253
:100058008A118F280330831603178800890103301B
:100068008316031385008701880189010330860000
:100078008113033095000330831203138600850132
:100088008701880101308900831603139F131F120B
:100098009F12831203131F083F3980389F00C33013
:1000A8009F050F3083120313B700B70B59285C283C
:1000B800831203131F1408007508F0398312031301
:1000C800B9003908F1007108B90004300310B90CFF
:1000D800FF3E031D6A283908BA003A08F10075087E
:1000E8000F39B9003908F20072080A128A1175210D
:1000F8000A128A1183120313B9003908F40071082F
:100108000A128A1175210A128A1183120313B9007F
:100118003908F30008000A128A110B210A128A1101
:10012800831203139F14750883120313070203181D
:100138009E289F28A328B201B20A0517A528B20154
:10014800051300300A128A11D8200A128A110A12DD
:100158008A1160200A128A1197280A128A110C281B
:100168000B1DB728B828BD280A128A11F3200A12D5
:100178008A11831203130C1FC228C328C8281E081B
:10018800F7007708F5000C130B1CCB28CC28D128D6
:100198000A128A1133210A128A1179088A00780E04
:1001A8008300FE0E7E0E090083120313B8009F1809
:1001B800DE28DF28F2283808B700B70DB70D1F086A
:1001C8003706C33937069F000F3083120313B70071
:1001D800B70BEC28EF28831203139F14080083122F
:1001E800031389017008031DFA28FB2803297408E2
:1001F800880089140130F6007608F007072973088B
:1002080088000915F001EB3081000B1108000A1273
:100218008A1182210A128A110A128A112E200A12C0
:100228008A110A128A1146210A128A110A128A119F
:1002380068210A128A1108007E088A007F08820055
:100248000A128A1120210A128A118000840A0408DD
:100258007D0603190034FF0A0319FE0A24298312B4
:1002680003130618382939293E290130F600760883
:1002780087074429861841294229442901308702E1
:100288000B1008008B170B178B150B108316031315
:100298000C17831203130C138B160B1107308316DC
:1002A800031396000B1008003F3406345B344F34B8
:1002B80066346D347D3407347F34673477347C3466
:1002C80039345E3479347134831603138112811101
:1002D800011581140114EB308312031381000B11F3
:1002E800080083120313B8003808203E84008313E3
:1002F8000008B7003708B000300808008316031359
:0A0308000F178F160F120F140800D4
:04400E00C430FF3F7C
:00000001FF
